{"abi":[{"type":"constructor","inputs":[],"stateMutability":"nonpayable"},{"type":"function","name":"TOKEN_REWARD","inputs":[],"outputs":[{"name":"","type":"uint256","internalType":"uint256"}],"stateMutability":"view"},{"type":"function","name":"UPGRADE_INTERFACE_VERSION","inputs":[],"outputs":[{"name":"","type":"string","internalType":"string"}],"stateMutability":"view"},{"type":"function","name":"addressToUsername","inputs":[{"name":"","type":"address","internalType":"address"}],"outputs":[{"name":"","type":"string","internalType":"string"}],"stateMutability":"view"},{"type":"function","name":"addressVerified","inputs":[{"name":"","type":"address","internalType":"address"}],"outputs":[{"name":"","type":"bool","internalType":"bool"}],"stateMutability":"view"},{"type":"function","name":"backendGameController","inputs":[],"outputs":[{"name":"","type":"address","internalType":"address"}],"stateMutability":"view"},{"type":"function","name":"claims","inputs":[{"name":"","type":"uint256","internalType":"uint256"},{"name":"","type":"address","internalType":"address"}],"outputs":[{"name":"","type":"uint256","internalType":"uint256"}],"stateMutability":"view"},{"type":"function","name":"codeToGame","inputs":[{"name":"","type":"string","internalType":"string"}],"outputs":[{"name":"id","type":"uint256","internalType":"uint256"},{"name":"code","type":"string","internalType":"string"},{"name":"creator","type":"address","internalType":"address"},{"name":"status","type":"uint8","internalType":"enum TycoonLib.GameStatus"},{"name":"winner","type":"address","internalType":"address"},{"name":"numberOfPlayers","type":"uint8","internalType":"uint8"},{"name":"joinedPlayers","type":"uint8","internalType":"uint8"},{"name":"mode","type":"uint8","internalType":"enum TycoonLib.GameType"},{"name":"ai","type":"bool","internalType":"bool"},{"name":"stakePerPlayer","type":"uint256","internalType":"uint256"},{"name":"totalStaked","type":"uint256","internalType":"uint256"},{"name":"createdAt","type":"uint64","internalType":"uint64"},{"name":"endedAt","type":"uint64","internalType":"uint64"}],"stateMutability":"view"},{"type":"function","name":"createAIGame","inputs":[{"name":"creatorUsername","type":"string","internalType":"string"},{"name":"gameType","type":"string","internalType":"string"},{"name":"playerSymbol","type":"string","internalType":"string"},{"name":"numberOfAI","type":"uint8","internalType":"uint8"},{"name":"code","type":"string","internalType":"string"},{"name":"startingBalance","type":"uint256","internalType":"uint256"}],"outputs":[{"name":"gameId","type":"uint256","internalType":"uint256"}],"stateMutability":"nonpayable"},{"type":"function","name":"createAIGameByBackend","inputs":[{"name":"forPlayer","type":"address","internalType":"address"},{"name":"forUsername","type":"string","internalType":"string"},{"name":"passwordHash","type":"bytes32","internalType":"bytes32"},{"name":"creatorUsername","type":"string","internalType":"string"},{"name":"gameType","type":"string","internalType":"string"},{"name":"playerSymbol","type":"string","internalType":"string"},{"name":"numberOfAI","type":"uint8","internalType":"uint8"},{"name":"code","type":"string","internalType":"string"},{"name":"startingBalance","type":"uint256","internalType":"uint256"}],"outputs":[{"name":"gameId","type":"uint256","internalType":"uint256"}],"stateMutability":"nonpayable"},{"type":"function","name":"createGame","inputs":[{"name":"creatorUsername","type":"string","internalType":"string"},{"name":"gameType","type":"string","internalType":"string"},{"name":"playerSymbol","type":"string","internalType":"string"},{"name":"numberOfPlayers","type":"uint8","internalType":"uint8"},{"name":"code","type":"string","internalType":"string"},{"name":"startingBalance","type":"uint256","internalType":"uint256"},{"name":"stakeAmount","type":"uint256","internalType":"uint256"}],"outputs":[{"name":"gameId","type":"uint256","internalType":"uint256"}],"stateMutability":"nonpayable"},{"type":"function","name":"createGameByBackend","inputs":[{"name":"forPlayer","type":"address","internalType":"address"},{"name":"forUsername","type":"string","internalType":"string"},{"name":"passwordHash","type":"bytes32","internalType":"bytes32"},{"name":"creatorUsername","type":"string","internalType":"string"},{"name":"gameType","type":"string","internalType":"string"},{"name":"playerSymbol","type":"string","internalType":"string"},{"name":"numberOfPlayers","type":"uint8","internalType":"uint8"},{"name":"code","type":"string","internalType":"string"},{"name":"startingBalance","type":"uint256","internalType":"uint256"},{"name":"stakeAmount","type":"uint256","internalType":"uint256"}],"outputs":[{"name":"gameId","type":"uint256","internalType":"uint256"}],"stateMutability":"nonpayable"},{"type":"function","name":"createWalletForExistingUser","inputs":[{"name":"player","type":"address","internalType":"address"}],"outputs":[{"name":"wallet","type":"address","internalType":"address"}],"stateMutability":"nonpayable"},{"type":"function","name":"drainContract","inputs":[],"outputs":[],"stateMutability":"nonpayable"},{"type":"function","name":"endAIGame","inputs":[{"name":"gameId","type":"uint256","internalType":"uint256"},{"name":"finalPosition","type":"uint8","internalType":"uint8"},{"name":"finalBalance","type":"uint256","internalType":"uint256"},{"name":"isWin","type":"bool","internalType":"bool"}],"outputs":[{"name":"","type":"bool","internalType":"bool"}],"stateMutability":"nonpayable"},{"type":"function","name":"endAIGameByBackend","inputs":[{"name":"forPlayer","type":"address","internalType":"address"},{"name":"forUsername","type":"string","internalType":"string"},{"name":"passwordHash","type":"bytes32","internalType":"bytes32"},{"name":"gameId","type":"uint256","internalType":"uint256"},{"name":"finalPosition","type":"uint8","internalType":"uint8"},{"name":"finalBalance","type":"uint256","internalType":"uint256"},{"name":"isWin","type":"bool","internalType":"bool"}],"outputs":[{"name":"","type":"bool","internalType":"bool"}],"stateMutability":"nonpayable"},{"type":"function","name":"exitGame","inputs":[{"name":"gameId","type":"uint256","internalType":"uint256"}],"outputs":[{"name":"","type":"bool","internalType":"bool"}],"stateMutability":"nonpayable"},{"type":"function","name":"exitGameByBackend","inputs":[{"name":"forPlayer","type":"address","internalType":"address"},{"name":"forUsername","type":"string","internalType":"string"},{"name":"passwordHash","type":"bytes32","internalType":"bytes32"},{"name":"gameId","type":"uint256","internalType":"uint256"}],"outputs":[{"name":"","type":"bool","internalType":"bool"}],"stateMutability":"nonpayable"},{"type":"function","name":"gameFaucet","inputs":[],"outputs":[{"name":"","type":"address","internalType":"address"}],"stateMutability":"view"},{"type":"function","name":"gameOrderToPlayer","inputs":[{"name":"","type":"uint256","internalType":"uint256"},{"name":"","type":"uint8","internalType":"uint8"}],"outputs":[{"name":"","type":"address","internalType":"address"}],"stateMutability":"view"},{"type":"function","name":"gamePlayers","inputs":[{"name":"","type":"uint256","internalType":"uint256"},{"name":"","type":"address","internalType":"address"}],"outputs":[{"name":"gameId","type":"uint256","internalType":"uint256"},{"name":"playerAddress","type":"address","internalType":"address"},{"name":"balance","type":"uint256","internalType":"uint256"},{"name":"position","type":"uint8","internalType":"uint8"},{"name":"order","type":"uint8","internalType":"uint8"},{"name":"symbol","type":"uint8","internalType":"enum TycoonLib.PlayerSymbol"},{"name":"username","type":"string","internalType":"string"}],"stateMutability":"view"},{"type":"function","name":"gameSettings","inputs":[{"name":"","type":"uint256","internalType":"uint256"}],"outputs":[{"name":"maxPlayers","type":"uint8","internalType":"uint8"},{"name":"auction","type":"bool","internalType":"bool"},{"name":"rentInPrison","type":"bool","internalType":"bool"},{"name":"mortgage","type":"bool","internalType":"bool"},{"name":"evenBuild","type":"bool","internalType":"bool"},{"name":"startingCash","type":"uint256","internalType":"uint256"},{"name":"privateRoomCode","type":"string","internalType":"string"}],"stateMutability":"view"},{"type":"function","name":"games","inputs":[{"name":"","type":"uint256","internalType":"uint256"}],"outputs":[{"name":"id","type":"uint256","internalType":"uint256"},{"name":"code","type":"string","internalType":"string"},{"name":"creator","type":"address","internalType":"address"},{"name":"status","type":"uint8","internalType":"enum TycoonLib.GameStatus"},{"name":"winner","type":"address","internalType":"address"},{"name":"numberOfPlayers","type":"uint8","internalType":"uint8"},{"name":"joinedPlayers","type":"uint8","internalType":"uint8"},{"name":"mode","type":"uint8","internalType":"enum TycoonLib.GameType"},{"name":"ai","type":"bool","internalType":"bool"},{"name":"stakePerPlayer","type":"uint256","internalType":"uint256"},{"name":"totalStaked","type":"uint256","internalType":"uint256"},{"name":"createdAt","type":"uint64","internalType":"uint64"},{"name":"endedAt","type":"uint64","internalType":"uint64"}],"stateMutability":"view"},{"type":"function","name":"getGame","inputs":[{"name":"gameId","type":"uint256","internalType":"uint256"}],"outputs":[{"name":"","type":"tuple","internalType":"struct TycoonLib.Game","components":[{"name":"id","type":"uint256","internalType":"uint256"},{"name":"code","type":"string","internalType":"string"},{"name":"creator","type":"address","internalType":"address"},{"name":"status","type":"uint8","internalType":"enum TycoonLib.GameStatus"},{"name":"winner","type":"address","internalType":"address"},{"name":"numberOfPlayers","type":"uint8","internalType":"uint8"},{"name":"joinedPlayers","type":"uint8","internalType":"uint8"},{"name":"mode","type":"uint8","internalType":"enum TycoonLib.GameType"},{"name":"ai","type":"bool","internalType":"bool"},{"name":"stakePerPlayer","type":"uint256","internalType":"uint256"},{"name":"totalStaked","type":"uint256","internalType":"uint256"},{"name":"createdAt","type":"uint64","internalType":"uint64"},{"name":"endedAt","type":"uint64","internalType":"uint64"}]}],"stateMutability":"view"},{"type":"function","name":"getGameByCode","inputs":[{"name":"code","type":"string","internalType":"string"}],"outputs":[{"name":"","type":"tuple","internalType":"struct TycoonLib.Game","components":[{"name":"id","type":"uint256","internalType":"uint256"},{"name":"code","type":"string","internalType":"string"},{"name":"creator","type":"address","internalType":"address"},{"name":"status","type":"uint8","internalType":"enum TycoonLib.GameStatus"},{"name":"winner","type":"address","internalType":"address"},{"name":"numberOfPlayers","type":"uint8","internalType":"uint8"},{"name":"joinedPlayers","type":"uint8","internalType":"uint8"},{"name":"mode","type":"uint8","internalType":"enum TycoonLib.GameType"},{"name":"ai","type":"bool","internalType":"bool"},{"name":"stakePerPlayer","type":"uint256","internalType":"uint256"},{"name":"totalStaked","type":"uint256","internalType":"uint256"},{"name":"createdAt","type":"uint64","internalType":"uint64"},{"name":"endedAt","type":"uint64","internalType":"uint64"}]}],"stateMutability":"view"},{"type":"function","name":"getGamePlayer","inputs":[{"name":"gameId","type":"uint256","internalType":"uint256"},{"name":"player","type":"address","internalType":"address"}],"outputs":[{"name":"","type":"tuple","internalType":"struct TycoonLib.GamePlayer","components":[{"name":"gameId","type":"uint256","internalType":"uint256"},{"name":"playerAddress","type":"address","internalType":"address"},{"name":"balance","type":"uint256","internalType":"uint256"},{"name":"position","type":"uint8","internalType":"uint8"},{"name":"order","type":"uint8","internalType":"uint8"},{"name":"symbol","type":"uint8","internalType":"enum TycoonLib.PlayerSymbol"},{"name":"username","type":"string","internalType":"string"}]}],"stateMutability":"view"},{"type":"function","name":"getGameSettings","inputs":[{"name":"gameId","type":"uint256","internalType":"uint256"}],"outputs":[{"name":"","type":"tuple","internalType":"struct TycoonLib.GameSettings","components":[{"name":"maxPlayers","type":"uint8","internalType":"uint8"},{"name":"auction","type":"bool","internalType":"bool"},{"name":"rentInPrison","type":"bool","internalType":"bool"},{"name":"mortgage","type":"bool","internalType":"bool"},{"name":"evenBuild","type":"bool","internalType":"bool"},{"name":"startingCash","type":"uint256","internalType":"uint256"},{"name":"privateRoomCode","type":"string","internalType":"string"}]}],"stateMutability":"view"},{"type":"function","name":"getLastGameCode","inputs":[{"name":"user","type":"address","internalType":"address"}],"outputs":[{"name":"","type":"string","internalType":"string"}],"stateMutability":"view"},{"type":"function","name":"getPlayersInGame","inputs":[{"name":"gameId","type":"uint256","internalType":"uint256"}],"outputs":[{"name":"","type":"address[]","internalType":"address[]"}],"stateMutability":"view"},{"type":"function","name":"getUser","inputs":[{"name":"username","type":"string","internalType":"string"}],"outputs":[{"name":"","type":"tuple","internalType":"struct TycoonLib.User","components":[{"name":"id","type":"uint256","internalType":"uint256"},{"name":"username","type":"string","internalType":"string"},{"name":"playerAddress","type":"address","internalType":"address"},{"name":"registeredAt","type":"uint64","internalType":"uint64"},{"name":"gamesPlayed","type":"uint256","internalType":"uint256"},{"name":"gamesWon","type":"uint256","internalType":"uint256"},{"name":"gamesLost","type":"uint256","internalType":"uint256"},{"name":"totalStaked","type":"uint256","internalType":"uint256"},{"name":"totalEarned","type":"uint256","internalType":"uint256"},{"name":"totalWithdrawn","type":"uint256","internalType":"uint256"},{"name":"propertiesbought","type":"uint256","internalType":"uint256"},{"name":"propertiesSold","type":"uint256","internalType":"uint256"}]}],"stateMutability":"view"},{"type":"function","name":"houseUSDC","inputs":[],"outputs":[{"name":"","type":"uint256","internalType":"uint256"}],"stateMutability":"view"},{"type":"function","name":"initialize","inputs":[{"name":"initialOwner","type":"address","internalType":"address"},{"name":"_rewardSystem","type":"address","internalType":"address"}],"outputs":[],"stateMutability":"nonpayable"},{"type":"function","name":"joinGame","inputs":[{"name":"gameId","type":"uint256","internalType":"uint256"},{"name":"playerUsername","type":"string","internalType":"string"},{"name":"playerSymbol","type":"string","internalType":"string"},{"name":"joinCode","type":"string","internalType":"string"}],"outputs":[{"name":"order","type":"uint8","internalType":"uint8"}],"stateMutability":"nonpayable"},{"type":"function","name":"joinGameByBackend","inputs":[{"name":"forPlayer","type":"address","internalType":"address"},{"name":"forUsername","type":"string","internalType":"string"},{"name":"passwordHash","type":"bytes32","internalType":"bytes32"},{"name":"gameId","type":"uint256","internalType":"uint256"},{"name":"playerUsername","type":"string","internalType":"string"},{"name":"playerSymbol","type":"string","internalType":"string"},{"name":"joinCode","type":"string","internalType":"string"}],"outputs":[{"name":"order","type":"uint8","internalType":"uint8"}],"stateMutability":"nonpayable"},{"type":"function","name":"leavePendingGame","inputs":[{"name":"gameId","type":"uint256","internalType":"uint256"}],"outputs":[{"name":"","type":"bool","internalType":"bool"}],"stateMutability":"nonpayable"},{"type":"function","name":"leavePendingGameByBackend","inputs":[{"name":"forPlayer","type":"address","internalType":"address"},{"name":"forUsername","type":"string","internalType":"string"},{"name":"passwordHash","type":"bytes32","internalType":"bytes32"},{"name":"gameId","type":"uint256","internalType":"uint256"}],"outputs":[{"name":"","type":"bool","internalType":"bool"}],"stateMutability":"nonpayable"},{"type":"function","name":"logicContract","inputs":[],"outputs":[{"name":"","type":"address","internalType":"address"}],"stateMutability":"view"},{"type":"function","name":"minStake","inputs":[],"outputs":[{"name":"","type":"uint256","internalType":"uint256"}],"stateMutability":"view"},{"type":"function","name":"minTurnsForPerks","inputs":[],"outputs":[{"name":"","type":"uint256","internalType":"uint256"}],"stateMutability":"view"},{"type":"function","name":"owner","inputs":[],"outputs":[{"name":"","type":"address","internalType":"address"}],"stateMutability":"view"},{"type":"function","name":"previousGameCode","inputs":[{"name":"","type":"address","internalType":"address"}],"outputs":[{"name":"","type":"string","internalType":"string"}],"stateMutability":"view"},{"type":"function","name":"proxiableUUID","inputs":[],"outputs":[{"name":"","type":"bytes32","internalType":"bytes32"}],"stateMutability":"view"},{"type":"function","name":"registerPlayer","inputs":[{"name":"username","type":"string","internalType":"string"}],"outputs":[{"name":"","type":"uint256","internalType":"uint256"}],"stateMutability":"nonpayable"},{"type":"function","name":"registerPlayerFor","inputs":[{"name":"playerAddress","type":"address","internalType":"address"},{"name":"username","type":"string","internalType":"string"},{"name":"passwordHash","type":"bytes32","internalType":"bytes32"}],"outputs":[{"name":"","type":"uint256","internalType":"uint256"}],"stateMutability":"nonpayable"},{"type":"function","name":"registerPlayerWithoutWallet","inputs":[{"name":"username","type":"string","internalType":"string"}],"outputs":[{"name":"","type":"uint256","internalType":"uint256"}],"stateMutability":"nonpayable"},{"type":"function","name":"registered","inputs":[{"name":"","type":"address","internalType":"address"}],"outputs":[{"name":"","type":"bool","internalType":"bool"}],"stateMutability":"view"},{"type":"function","name":"removePlayerFromGame","inputs":[{"name":"gameId","type":"uint256","internalType":"uint256"},{"name":"player","type":"address","internalType":"address"},{"name":"turnCount","type":"uint256","internalType":"uint256"}],"outputs":[{"name":"","type":"bool","internalType":"bool"}],"stateMutability":"nonpayable"},{"type":"function","name":"renounceOwnership","inputs":[],"outputs":[],"stateMutability":"nonpayable"},{"type":"function","name":"rewardSystem","inputs":[],"outputs":[{"name":"","type":"address","internalType":"contract TycoonRewardSystem"}],"stateMutability":"view"},{"type":"function","name":"setBackendGameController","inputs":[{"name":"newController","type":"address","internalType":"address"}],"outputs":[],"stateMutability":"nonpayable"},{"type":"function","name":"setBackendPasswordFor","inputs":[{"name":"playerAddress","type":"address","internalType":"address"},{"name":"passwordHash","type":"bytes32","internalType":"bytes32"}],"outputs":[],"stateMutability":"nonpayable"},{"type":"function","name":"setGameFaucet","inputs":[{"name":"_gameFaucet","type":"address","internalType":"address"}],"outputs":[],"stateMutability":"nonpayable"},{"type":"function","name":"setLogicContract","inputs":[{"name":"_logicContract","type":"address","internalType":"address"}],"outputs":[],"stateMutability":"nonpayable"},{"type":"function","name":"setMinStake","inputs":[{"name":"newMinStake","type":"uint256","internalType":"uint256"}],"outputs":[],"stateMutability":"nonpayable"},{"type":"function","name":"setMinTurnsForPerks","inputs":[{"name":"newMin","type":"uint256","internalType":"uint256"}],"outputs":[],"stateMutability":"nonpayable"},{"type":"function","name":"setPropertyStats","inputs":[{"name":"sellerUsername","type":"string","internalType":"string"},{"name":"buyerUsername","type":"string","internalType":"string"}],"outputs":[],"stateMutability":"nonpayable"},{"type":"function","name":"setRewardSystem","inputs":[{"name":"_rewardSystem","type":"address","internalType":"address"}],"outputs":[],"stateMutability":"nonpayable"},{"type":"function","name":"setTurnCount","inputs":[{"name":"gameId","type":"uint256","internalType":"uint256"},{"name":"player","type":"address","internalType":"address"},{"name":"count","type":"uint256","internalType":"uint256"}],"outputs":[],"stateMutability":"nonpayable"},{"type":"function","name":"setUserRegistry","inputs":[{"name":"_userRegistry","type":"address","internalType":"address"}],"outputs":[],"stateMutability":"nonpayable"},{"type":"function","name":"totalGames","inputs":[],"outputs":[{"name":"","type":"uint256","internalType":"uint256"}],"stateMutability":"view"},{"type":"function","name":"totalUsers","inputs":[],"outputs":[{"name":"","type":"uint256","internalType":"uint256"}],"stateMutability":"view"},{"type":"function","name":"transferOwnership","inputs":[{"name":"newOwner","type":"address","internalType":"address"}],"outputs":[],"stateMutability":"nonpayable"},{"type":"function","name":"turnsPlayed","inputs":[{"name":"","type":"uint256","internalType":"uint256"},{"name":"","type":"address","internalType":"address"}],"outputs":[{"name":"","type":"uint256","internalType":"uint256"}],"stateMutability":"view"},{"type":"function","name":"upgradeToAndCall","inputs":[{"name":"newImplementation","type":"address","internalType":"address"},{"name":"data","type":"bytes","internalType":"bytes"}],"outputs":[],"stateMutability":"payable"},{"type":"function","name":"userRegistry","inputs":[],"outputs":[{"name":"","type":"address","internalType":"address"}],"stateMutability":"view"},{"type":"function","name":"users","inputs":[{"name":"","type":"string","internalType":"string"}],"outputs":[{"name":"id","type":"uint256","internalType":"uint256"},{"name":"username","type":"string","internalType":"string"},{"name":"playerAddress","type":"address","internalType":"address"},{"name":"registeredAt","type":"uint64","internalType":"uint64"},{"name":"gamesPlayed","type":"uint256","internalType":"uint256"},{"name":"gamesWon","type":"uint256","internalType":"uint256"},{"name":"gamesLost","type":"uint256","internalType":"uint256"},{"name":"totalStaked","type":"uint256","internalType":"uint256"},{"name":"totalEarned","type":"uint256","internalType":"uint256"},{"name":"totalWithdrawn","type":"uint256","internalType":"uint256"},{"name":"propertiesbought","type":"uint256","internalType":"uint256"},{"name":"propertiesSold","type":"uint256","internalType":"uint256"}],"stateMutability":"view"},{"type":"function","name":"verifyAddress","inputs":[{"name":"signature","type":"bytes","internalType":"bytes"}],"outputs":[],"stateMutability":"nonpayable"},{"type":"function","name":"withdrawHouse","inputs":[{"name":"amount","type":"uint256","internalType":"uint256"}],"outputs":[],"stateMutability":"nonpayable"},{"type":"event","name":"AIGameEnded","inputs":[{"name":"gameId","type":"uint256","indexed":true,"internalType":"uint256"},{"name":"player","type":"address","indexed":true,"internalType":"address"},{"name":"timestamp","type":"uint64","indexed":false,"internalType":"uint64"}],"anonymous":false},{"type":"event","name":"AddressVerified","inputs":[{"name":"player","type":"address","indexed":true,"internalType":"address"}],"anonymous":false},{"type":"event","name":"BackendGameControllerUpdated","inputs":[{"name":"newController","type":"address","indexed":true,"internalType":"address"}],"anonymous":false},{"type":"event","name":"GameCreated","inputs":[{"name":"gameId","type":"uint256","indexed":true,"internalType":"uint256"},{"name":"creator","type":"address","indexed":true,"internalType":"address"},{"name":"timestamp","type":"uint64","indexed":false,"internalType":"uint64"}],"anonymous":false},{"type":"event","name":"GameEnded","inputs":[{"name":"gameId","type":"uint256","indexed":true,"internalType":"uint256"},{"name":"winner","type":"address","indexed":true,"internalType":"address"},{"name":"timestamp","type":"uint64","indexed":false,"internalType":"uint64"}],"anonymous":false},{"type":"event","name":"GameFaucetUpdated","inputs":[{"name":"previous","type":"address","indexed":true,"internalType":"address"},{"name":"newFaucet","type":"address","indexed":true,"internalType":"address"}],"anonymous":false},{"type":"event","name":"HouseWithdrawn","inputs":[{"name":"amount","type":"uint256","indexed":false,"internalType":"uint256"},{"name":"to","type":"address","indexed":true,"internalType":"address"}],"anonymous":false},{"type":"event","name":"Initialized","inputs":[{"name":"version","type":"uint64","indexed":false,"internalType":"uint64"}],"anonymous":false},{"type":"event","name":"MinStakeUpdated","inputs":[{"name":"previousMinStake","type":"uint256","indexed":false,"internalType":"uint256"},{"name":"newMinStake","type":"uint256","indexed":false,"internalType":"uint256"}],"anonymous":false},{"type":"event","name":"MinTurnsForPerksUpdated","inputs":[{"name":"previous","type":"uint256","indexed":false,"internalType":"uint256"},{"name":"newMin","type":"uint256","indexed":false,"internalType":"uint256"}],"anonymous":false},{"type":"event","name":"OwnershipTransferred","inputs":[{"name":"previousOwner","type":"address","indexed":true,"internalType":"address"},{"name":"newOwner","type":"address","indexed":true,"internalType":"address"}],"anonymous":false},{"type":"event","name":"PlayerCreated","inputs":[{"name":"username","type":"string","indexed":true,"internalType":"string"},{"name":"player","type":"address","indexed":true,"internalType":"address"},{"name":"timestamp","type":"uint64","indexed":false,"internalType":"uint64"}],"anonymous":false},{"type":"event","name":"PlayerExited","inputs":[{"name":"gameId","type":"uint256","indexed":true,"internalType":"uint256"},{"name":"player","type":"address","indexed":true,"internalType":"address"}],"anonymous":false},{"type":"event","name":"PlayerJoined","inputs":[{"name":"gameId","type":"uint256","indexed":true,"internalType":"uint256"},{"name":"player","type":"address","indexed":true,"internalType":"address"},{"name":"order","type":"uint8","indexed":false,"internalType":"uint8"}],"anonymous":false},{"type":"event","name":"PlayerLeftPendingGame","inputs":[{"name":"gameId","type":"uint256","indexed":true,"internalType":"uint256"},{"name":"player","type":"address","indexed":true,"internalType":"address"},{"name":"stakeRefunded","type":"uint256","indexed":false,"internalType":"uint256"}],"anonymous":false},{"type":"event","name":"PlayerRegisteredByBackend","inputs":[{"name":"username","type":"string","indexed":true,"internalType":"string"},{"name":"player","type":"address","indexed":true,"internalType":"address"}],"anonymous":false},{"type":"event","name":"PlayerRemoved","inputs":[{"name":"gameId","type":"uint256","indexed":true,"internalType":"uint256"},{"name":"player","type":"address","indexed":true,"internalType":"address"},{"name":"timestamp","type":"uint64","indexed":false,"internalType":"uint64"}],"anonymous":false},{"type":"event","name":"PlayerRemovedByController","inputs":[{"name":"gameId","type":"uint256","indexed":true,"internalType":"uint256"},{"name":"player","type":"address","indexed":true,"internalType":"address"},{"name":"removedBy","type":"address","indexed":true,"internalType":"address"}],"anonymous":false},{"type":"event","name":"RewardClaimed","inputs":[{"name":"gameId","type":"uint256","indexed":true,"internalType":"uint256"},{"name":"player","type":"address","indexed":true,"internalType":"address"},{"name":"amountUSDC","type":"uint256","indexed":false,"internalType":"uint256"}],"anonymous":false},{"type":"event","name":"RewardSystemUpdated","inputs":[{"name":"previous","type":"address","indexed":true,"internalType":"address"},{"name":"newRewardSystem","type":"address","indexed":true,"internalType":"address"}],"anonymous":false},{"type":"event","name":"TurnCountSet","inputs":[{"name":"gameId","type":"uint256","indexed":true,"internalType":"uint256"},{"name":"player","type":"address","indexed":true,"internalType":"address"},{"name":"count","type":"uint256","indexed":false,"internalType":"uint256"}],"anonymous":false},{"type":"event","name":"Upgraded","inputs":[{"name":"implementation","type":"address","indexed":true,"internalType":"address"}],"anonymous":false},{"type":"event","name":"UserRegistryUpdated","inputs":[{"name":"previous","type":"address","indexed":true,"internalType":"address"},{"name":"newRegistry","type":"address","indexed":true,"internalType":"address"}],"anonymous":false},{"type":"error","name":"AddressEmptyCode","inputs":[{"name":"target","type":"address","internalType":"address"}]},{"type":"error","name":"ECDSAInvalidSignature","inputs":[]},{"type":"error","name":"ECDSAInvalidSignatureLength","inputs":[{"name":"length","type":"uint256","internalType":"uint256"}]},{"type":"error","name":"ECDSAInvalidSignatureS","inputs":[{"name":"s","type":"bytes32","internalType":"bytes32"}]},{"type":"error","name":"ERC1967InvalidImplementation","inputs":[{"name":"implementation","type":"address","internalType":"address"}]},{"type":"error","name":"ERC1967NonPayable","inputs":[]},{"type":"error","name":"FailedCall","inputs":[]},{"type":"error","name":"InvalidInitialization","inputs":[]},{"type":"error","name":"NotInitializing","inputs":[]},{"type":"error","name":"OwnableInvalidOwner","inputs":[{"name":"owner","type":"address","internalType":"address"}]},{"type":"error","name":"OwnableUnauthorizedAccount","inputs":[{"name":"account","type":"address","internalType":"address"}]},{"type":"error","name":"ReentrancyGuardReentrantCall","inputs":[]},{"type":"error","name":"UUPSUnauthorizedCallContext","inputs":[]},{"type":"error","name":"UUPSUnsupportedProxiableUUID","inputs":[{"name":"slot","type":"bytes32","internalType":"bytes32"}]}],"bytecode":{"object":"0x60a080604052346101335760017f9b779b17422d0df92223018b32b4d1fa46e071723d6817e2486d003becc55f008190555f80546001600160a01b03198116831782556001600160a01b0316907f8be0079c531659141344cd1fd0a4f28419497f9722a3daafe3b4186f6b6457e09080a33060805260016003556103e86005555f516020614e395f395f51905f525460ff8160401c16610124576002600160401b03196001600160401b038216016100d1575b604051614d019081610138823960805181818161125101526113790152f35b6001600160401b0319166001600160401b039081175f516020614e395f395f51905f525581527fc7f505b2f371ae2175ee4913f4499e1f2633a7b5936321eed1cdaeb6115181d290602090a15f806100b2565b63f92ee8a960e01b5f5260045ffd5b5f80fdfe60806040526004361015610011575f80fd5b5f3560e01c806305931a3c1461043f578063117a5b901461043a578063126f68b11461043557806313f2ae181461038157806317c31910146104305780631b5569d41461042b5780631da4c66b14610426578063232184111461042157806324bf7eec1461041c57806329dcf997146104175780632b3ea9e1146104125780632c4e591b1461040d57806331feb67114610408578063355f01bd14610403578063375b3c0a146103fe578063448d7252146103f9578063485cc955146103f45780634f1ef286146103ef57806352d1902d146103ea57806355462c4e146103e557806355e0ef31146103e05780635aa4470f146103db5780635c7460d6146103d65780636021b139146103d157806362e2961b146103cc578063643036dd146103c7578063654e4a00146103c2578063689e1c03146103bd578063715018a6146103b85780637328a153146103b357806373d38793146103ae57806374796cc2146103a95780637716393c146103a45780637cea0c751461039f5780637f5124dd1461039a5780638c80fd90146103955780638da5cb5b146103905780638f269ae41461038b57806391678e2814610386578063931eceb6146103815780639ea5d1611461037c578063a2f77bcc14610377578063a937f9b414610372578063ad38ed4b1461036d578063ad3cb1cc14610368578063aec6fb6914610363578063b0d5451b1461035e578063b2dd5c0714610359578063b3446f8514610354578063b37d27bf1461034f578063bff1f9e11461034a578063cb2a2c3b14610345578063cc0e97c914610340578063cd44c40e1461033b578063ced91a7214610336578063d0360e5914610331578063d37fa66c1461032c578063d4ba890214610327578063da5e0f8d14610322578063e001764a1461031d578063e07a0baa14610318578063ed18b3b214610313578063eda71e711461030e578063eff98afb14610309578063f2fde38b14610304578063f3ffe195146102ff5763f6e2560a146102fa575f80fd5b61342a565b613378565b613328565b61327a565b613229565b612f90565b612f55565b612ea7565b612d49565b612d27565b612c6f565b612b32565b6129f5565b61295b565b612933565b61289e565b612881565b6127d8565b61269d565b61265d565b6125f0565b612573565b612522565b61248b565b612421565b6122c6565b612025565b6108e3565b611f69565b611f4c565b611f25565b611ec5565b611dc5565b611d0b565b611bb5565b611ab1565b611a47565b6119e8565b6119a4565b611916565b61184e565b61176e565b6116f0565b6115f1565b611551565b61150a565b611441565b6113be565b611367565b6111fe565b6110c4565b611057565b61103a565b610fd5565b610f2c565b610db6565b610d3a565b610d12565b610ce2565b610b7f565b610b4b565b610a28565b610955565b6108a6565b61075b565b6105f6565b90600182811c92168015610472575b602083101461045e57565b634e487b7160e01b5f52602260045260245ffd5b91607f1691610453565b634e487b7160e01b5f52604160045260245ffd5b61018081019081106001600160401b038211176104ac57604052565b61047c565b60e081019081106001600160401b038211176104ac57604052565b601f909101601f19168101906001600160401b038211908210176104ac57604052565b9060405191825f82549261050284610444565b808452936001811690811561056d5750600114610529575b50610527925003836104cc565b565b90505f9291925260205f20905f915b818310610551575050906020610527928201015f61051a565b6020919350806001915483858901015201910190918492610538565b90506020925061052794915060ff191682840152151560051b8201015f61051a565b805180835260209291819084018484015e5f828201840152601f01601f1916010190565b93909260e0959260ff6105f39998951686521515602086015215156040850152151560608401521515608083015260a08201528160c0820152019061058f565b90565b3461065d57602036600319011261065d576004355f52600b60205260405f20805461065961062b6002600185015494016104ef565b604051938360ff869560201c169060ff8160181c169060ff8160101c169060ff808260081c169116886105b3565b0390f35b5f80fd5b6001600160a01b031690565b60401c6001600160401b031690565b634e487b7160e01b5f52602160045260245ffd5b90600382101561069d5752565b61067c565b90600282101561069d5752565b6001600160401b03169052565b9a989694929d9c9b9997959391908b5260208b016101a090526101a08b016106e39161058f565b6001600160a01b03909d1660408b01526107019060608b0190610690565b6001600160a01b0316608089015260ff90811660a08901521660c087015260e0860161072c916106a2565b1515610100850152610120840152610140830152610160820161074e916106af565b61018001610527916106af565b3461065d57602036600319011261065d576004355f52600a60205260405f20805461065961078b600184016104ef565b916002840154936003810154906107a68260ff9060a81c1690565b60b083901c60ff1660b884901c60ff169060048401549260066005860154950154956107e06107da8860018060401b031690565b9761066d565b6040519b8c9b919960a084811c60ff908116956001600160a01b03908116959285901c9091169316918e6106bc565b6001600160a01b0381160361065d57565b600435906105278261080f565b6001600160a01b03165f90815260126020526040902090565b6001600160a01b03165f90815260086020526040902090565b6001600160a01b03165f90815260096020526040902090565b6001600160a01b03165f90815260116020526040902090565b9060018060a01b03165f5260205260405f2090565b3461065d57604036600319011261065d5760206108da6024356004356108cb8261080f565b5f526010835260405f20610891565b54604051908152f35b3461065d57602036600319011261065d576004356109008161080f565b60018060a01b03165f52600e60205261065961091e60405f206104ef565b60405191829160208352602083019061058f565b606090600319011261065d576004359060243561094e8161080f565b9060443590565b3461065d5761096336610932565b9060018060a01b0360155416331480156109e7575b80156109d4575b1561098f5761098d9261353c565b005b60405162461bcd60e51b815260206004820152601d60248201527f4e6f742067616d6520636f6e74726f6c6c6572206f72206661756365740000006044820152606490fd5b505f546001600160a01b0316331461097f565b506016546001600160a01b03163314610978565b9181601f8401121561065d578235916001600160401b03831161065d576020838186019501011161065d57565b3461065d57602036600319011261065d576004356001600160401b03811161065d57610a5b610ae99136906004016109fb565b610ae2610ac560405160208101906e02a3cb1b7b7b7103b32b934b33c9d1608d1b82523360601b602f82015260238152610a966043826104cc565b5190207b0ca2ba3432b932bab69029b4b3b732b21026b2b9b9b0b3b29d05199960211b5f52601c52603c5f2090565b33936001600160a01b0393610adc91369190610e0e565b906146f3565b1614613615565b610b0b610b06610b02610afb3361082d565b5460ff1690565b1590565b613655565b610b24610b173361082d565b805460ff19166001179055565b337fa73de5a14448d1018a70f5aef0b1eb8f27129ccb6857389295be0104a4fe059f5f80a2005b3461065d57604036600319011261065d5760206108da602435600435610b708261080f565b5f52600f835260405f20610891565b3461065d57602036600319011261065d57600435610b9b614709565b610bbb610bb682600454610bb181831115613694565b6136f1565b600455565b60046020610bd2610bcd601354610661565b610661565b604051631f209df760e11b815292839182905afa8015610cb05782602091610c25935f91610cb5575b505f546001600160a01b03165b5f60405180968195829463a9059cbb60e01b845260048401613738565b03926001600160a01b03165af18015610cb057610c49915f91610c81575b50613753565b5f545f516020614c2c5f395f51905f5290610c7c906001600160a01b039081165b60405194855216929081906020820190565b0390a2005b610ca3915060203d602011610ca9575b610c9b81836104cc565b810190613723565b5f610c43565b503d610c91565b613718565b610cd59150833d8511610cdb575b610ccd81836104cc565b810190613703565b5f610bfb565b503d610cc3565b3461065d575f36600319011261065d576020600454604051908152f35b6001600160a01b03909116815260200190565b3461065d575f36600319011261065d576016546040516001600160a01b039091168152602090f35b3461065d57602036600319011261065d57600435610d578161080f565b610d5f614709565b6001600160a01b0316610d73811515613791565b601380546001600160a01b0319811683179091556001600160a01b03167f832a828f0e43dfe996ad2f32a762f44cdf4eb664a9c27012a0f25f6049e7a7945f80a3005b3461065d575f36600319011261065d576020600254604051908152f35b60405190610527610180836104cc565b604051906105276101a0836104cc565b6001600160401b0381116104ac57601f01601f191660200190565b929192610e1a82610df3565b91610e2860405193846104cc565b82948184528183011161065d578281602093845f960137010152565b9080601f8301121561065d578160206105f393359101610e0e565b602060031982011261065d57600435906001600160401b03821161065d576105f391600401610e44565b6020815281516020820152610180610160610eb360208501518360408601526101a085019061058f565b60408501516001600160a01b0316606085015293610ed9606082015160808601906106af565b608081015160a085015260a081015160c085015260c081015160e085015260e081015161010085015261010081015161012085015261012081015161014085015261014081015182850152015191015290565b3461065d57610659610fc9610fc4610f4336610e5f565b5f610160604051610f5381610490565b828152606060208201528260408201528260608201528260808201528260a08201528260c08201528260e08201528261010082015282610120820152826101408201520152610fbf60018060a01b03610fb76002610fb085611888565b0154610661565b1615156137cc565b611888565b613827565b60405191829182610e89565b3461065d57602036600319011261065d577f76a2838152dc7cb6a33017099b34e532f308ce7e9864283ea7c873ac6eee20b9600435611012614709565b601754816017556110356040519283928360209093929193604081019481520152565b0390a1005b3461065d575f36600319011261065d576020600554604051908152f35b3461065d57602036600319011261065d576004356110748161080f565b61107c614709565b601680546001600160a01b039283166001600160a01b0319821681179092559091167f3baedd302ec23fbd4595ac73eaeddaceb36f561252da563aaad12475042c33e05f80a3005b3461065d57604036600319011261065d576004356110e18161080f565b602435906110ee8261080f565b5f516020614cac5f395f51905f52549160ff604084901c1615926001600160401b0316801590816111f6575b60011490816111ec575b1590816111e3575b506111d4575f516020614cac5f395f51905f5280546001600160401b031916600117905561115e91836111b0576138d3565b61116457005b5f516020614cac5f395f51905f52805460ff60401b19169055604051600181527fc7f505b2f371ae2175ee4913f4499e1f2633a7b5936321eed1cdaeb6115181d2908060208101611035565b5f516020614cac5f395f51905f52805460ff60401b1916600160401b1790556138d3565b63f92ee8a960e01b5f5260045ffd5b9050155f61112c565b303b159150611124565b84915061111a565b604036600319011261065d576004356112168161080f565b6024356001600160401b03811161065d573660238201121561065d57611246903690602481600401359101610e0e565b906001600160a01b037f000000000000000000000000000000000000000000000000000000000000000016308114908115611345575b5061133657611289614709565b6040516352d1902d60e01b8152916020836004816001600160a01b0386165afa5f9381611305575b506112d257634c9c8ce360e01b5f526001600160a01b03821660045260245ffd5b905f516020614c4c5f395f51905f5283036112f15761098d9250614a85565b632a87526960e21b5f52600483905260245ffd5b61132891945060203d60201161132f575b61132081836104cc565b810190613cf1565b925f6112b1565b503d611316565b63703e46dd60e11b5f5260045ffd5b5f516020614c4c5f395f51905f52546001600160a01b0316141590505f61127c565b3461065d575f36600319011261065d577f00000000000000000000000000000000000000000000000000000000000000006001600160a01b031630036113365760206040515f516020614c4c5f395f51905f528152f35b3461065d57602036600319011261065d576004356113db8161080f565b60018060a01b03165f526012602052602060ff60405f2054166040519015158152f35b90608060031983011261065d576004356114178161080f565b91602435906001600160401b03821161065d5761143691600401610e44565b906044359060643590565b3461065d576106596114e75f8061147761147061145d366113fe565b949261146b94929194614762565b6147ad565b91826148a3565b6018546001600160a01b0316916114b5906114c390611497851515613992565b60405192839160208301956319f6b54960e31b875260248401613738565b03601f1981018352826104cc565b51915af46114d86114d26139ce565b916139fd565b60208082518301019101613723565b60015f516020614c8c5f395f51905f525560405191829182901515815260200190565b3461065d57602036600319011261065d576004356115278161080f565b61152f614709565b601880546001600160a01b0319166001600160a01b0392909216919091179055005b3461065d575f36600319011261065d576014546040516001600160a01b039091168152602090f35b90600882101561069d5752565b61010060c06105f393602084528051602085015260018060a01b0360208201511660408501526040810151606085015260ff606082015116608085015260ff60808201511660a08501526115e160a082015183860190611579565b01519160e080820152019061058f565b3461065d57604036600319011261065d576106596116306024356004356116178261080f565b61161f613a49565b505f52600d60205260405f20610891565b611695600460405192611642846104b1565b8054845260018101546001600160a01b0316602085015260028101546040850152600381015460ff8082166060870152600882901c8116608087015261168f9160101c1660a08601613a7f565b016104ef565b60c082015260405191829182611586565b939460ff60e0966116e3956105f39a99958395895260018060a01b03166020890152604088015216606086015216608084015260a0830190611579565b8160c0820152019061058f565b3461065d57604036600319011261065d576117236024356004356117138261080f565b5f52600d60205260405f20610891565b80549061065960018060a01b036001830154169160028101549261174e6004600384015493016104ef565b9160405195869560ff8360101c169360ff808560081c16941692886116a6565b3461065d5761183a5f8061179561179c611787366113fe565b939261146b95929195614762565b92836148a3565b808352600d6020526117c860018060a01b036117c06001610fb08660408920610891565b161515613502565b6114b56118286117d9601854610661565b936117ed6117e686610661565b1515613992565b60405163769531ff60e01b6020820190815260248201959095526001600160a01b0390911660448201525f1960648201529182906084820190565b51915af46118346139ce565b50613a8b565b61184261479a565b60405160018152602090f35b3461065d575f36600319011261065d576015546040516001600160a01b039091168152602090f35b805191908290602001825e015f815290565b602061189a9160405192838092611876565b600781520301902090565b9895929c9b9a9794916118ce906101609b9895928b5261018060208c01526101808b019061058f565b6001600160a01b03909d1660408a01526001600160401b03166060890152608088015260a087015260c086015260e08501526101008401526101208301526101408201520152565b3461065d57611935602061192936610e5f565b60405192838092611876565b600781520301902080549061065961194f600183016104ef565b91600281015490600381015460048201546005830154600684015490600785015492600886015494600a6009880154970154976040519b8c9b60018060401b038360a01c169260018060a01b0316918d6118a5565b3461065d575f36600319011261065d576119bc614709565b5f80546001600160a01b0319811682556001600160a01b03165f516020614c6c5f395f51905f528280a3005b3461065d57602036600319011261065d576106596114e75f80600435611a0c614762565b6018546001600160a01b031690611a24821515613992565b6040516114c3816114b560208201946319f6b54960e31b86523360248401613738565b3461065d575f36600319011261065d576013546040516001600160a01b039091168152602090f35b60206040818301928281528451809452019201905f5b818110611a925750505090565b82516001600160a01b0316845260209384019390920191600101611a85565b3461065d57602036600319011261065d57600435805f52600a602052611b09611b03600360405f20611af860018060a01b03611af06002840154610661565b161515613ad0565b015460a01c60ff1690565b60ff1690565b611b1281613b24565b9160015b8260ff82161115611b2f57604051806106598682611a6f565b80611b86611b6c611b5f611b8b94611b4f875f52600660205260405f2090565b9060ff165f5260205260405f2090565b546001600160a01b031690565b611b81611b7b611b0385613b67565b88613b79565b613809565b613b56565b611b16565b60ff81160361065d57565b60c4359061052782611b90565b6064359061052782611b90565b3461065d5761014036600319011261065d57611bcf610820565b6024356001600160401b03811161065d57611bee903690600401610e44565b90604435906064356001600160401b03811161065d57611c12903690600401610e44565b926084356001600160401b03811161065d57611c32903690600401610e44565b9260a4356001600160401b03811161065d57611c52903690600401610e44565b611c5a611b9b565b60e435959091906001600160401b03871161065d5761065997611c84611c94983690600401610e44565b9461010435966101243598613ba1565b6040519081529081906020820190565b61010060c06105f3936020845260ff8151166020850152602081015115156040850152604081015115156060850152611ce66060820151608086019015159052565b6080810151151560a085015260a08101518285015201519160e080820152019061058f565b3461065d57602036600319011261065d57600435611d27613a49565b505f52600b60205261065960405f20611db4600260405192611d48846104b1565b611da4611d9b825460ff8116875260ff8160081c1615156020880152611d7e611d758260ff9060101c1690565b15156040890152565b611d92601882901c60ff1615156060890152565b60201c60ff1690565b15156080860152565b600181015460a0850152016104ef565b60c082015260405191829182611ca4565b3461065d57602036600319011261065d575f80600435611de48161080f565b611dec614709565b6018546001600160a01b031690611e04821515613992565b604051637f5124dd60e01b602082019081526001600160a01b039092166024808301919091528152611e376044826104cc565b51915af4611e436139ce565b9015611e6e57611e62610bcd8260208061065995518301019101613703565b60405191829182610cff565b60405162461bcd60e51b815260206004820152602960248201527f4c6f6769633a2063726561746557616c6c6574466f724578697374696e675573604482015268195c8819985a5b195960ba1b6064820152608490fd5b3461065d57602036600319011261065d577f171aabb8815c02fd00303450a77058600e3661eb75ce2e77972c0f080bc7099d600435611f02614709565b600554816005556110356040519283928360209093929193604081019481520152565b3461065d575f36600319011261065d575f546040516001600160a01b039091168152602090f35b3461065d575f36600319011261065d576020601754604051908152f35b3461065d57604036600319011261065d576004356001600160401b03811161065d57611f999036906004016109fb565b6024356001600160401b03811161065d57611fb89036906004016109fb565b9160018060a01b036016541633148015612012575b15611fdb5761098d93613df9565b60405162461bcd60e51b815260206004820152600f60248201526e139bdd0819d85b594819985d58d95d608a1b6044820152606490fd5b505f546001600160a01b03163314611fcd565b3461065d5761203336610e5f565b61203c81614944565b61205c6001600160a01b036120556002610fb085611888565b1615613ea2565b61207361206e610b02610afb33610846565b613edf565b612086612081600154613deb565b600155565b600154426001600160401b0316915f91612107906120a2610dd3565b9081528260208201526120b83360408301613809565b6120c58560608301613818565b8360808201528360a08201528360c08201528360e08201528361010082015283610120820152836101408201528361016082015261210283611888565b614036565b612113610b1733610846565b612125816121203361085f565b613f6f565b612131610b173361082d565b602061216a612144610bcd601354610661565b671bc16d674ec80000604051958680948193634a080b1760e01b83523360048401613738565b03925af1918215610cb057612184926121d3575b50614109565b7fb76125fbbda66124c98e65fb6db5950119644b06428cf42df83c37733b793a17604051806121c23395826001600160401b03909116815260200190565b0390a3600154604051908152602090f35b6121eb9060203d60201161132f5761132081836104cc565b61217e565b6105f39060208152825160208201526101a061018061221e60208601518360408601526101c085019061058f565b60408601516001600160a01b031660608501529461224460608201516080860190610690565b60808101516001600160a01b031660a085015260a081015160ff1660c085015260c081015160ff1660e085015261228460e08201516101008601906106a2565b61010081015115156101208501526101208101516101408501526101408101516101608501526122bc610160820151838601906106af565b01519101906106af565b3461065d57602036600319011261065d576004356122e261411f565b505f818152600a6020526040902060020154612308906001600160a01b03161515614190565b5f52600a60205261065960405f2061241561240b6006612326610de3565b9380548552612337600182016104ef565b602086015261236e612365600283015461235c61235382610661565b60408a01613809565b60a01c60ff1690565b606087016141c8565b6123d76123cd600383015461238e61238582610661565b60808a01613809565b6123a360a082901c60ff1660ff1660a08a0152565b60ff60a882901c1660c08901526123c460b082901c60ff1660e08a016141d4565b60b81c60ff1690565b1515610100870152565b6004810154610120860152600581015461014086015201546124066001600160401b0382166101608601613818565b61066d565b6101808301613818565b604051918291826121f0565b3461065d57602036600319011261065d5760043561243e8161080f565b612446614709565b601580546001600160a01b0319166001600160a01b039290921691821790557fbfce0d134bfade4549b9bb51c6506cada90e3293543ef043a22970716b8c59965f80a2005b3461065d57602036600319011261065d5761183a5f806004356124ac614762565b808252600d6020526124d760018060a01b0360016124cd3360408720610891565b0154161515613502565b6018546001600160a01b0316906124ef821515613992565b604051602081019163769531ff60e01b8352602482015233604482015283196064820152606481526118286084826104cc565b3461065d575f36600319011261065d576106596040516125436040826104cc565b60058152640352e302e360dc1b602082015260405191829160208352602083019061058f565b8015150361065d57565b3461065d5760e036600319011261065d576004356125908161080f565b6024356001600160401b03811161065d57610659916125b66125de923690600401610e44565b6084356064356044356125c883611b90565b60a4359360c435956125d987612569565b6141e0565b60405191829182901515815260200190565b3461065d57602036600319011261065d5760043561260d8161080f565b612615614709565b601480546001600160a01b039283166001600160a01b0319821681179092559091167fbcae71b01af1bc1e942f7862d443fd4b3bf302dbb324e957ce1ffdffa650cfaa5f80a3005b3461065d57602036600319011261065d5760043561267a8161080f565b60018060a01b03165f526008602052602060ff60405f2054166040519015158152f35b3461065d576126ab36610e5f565b6126b481614944565b6126cd6001600160a01b036120556002610fb085611888565b6126df61206e610b02610afb33610846565b6126ed612081600154613deb565b600154426001600160401b0316915f91612709906120a2610dd3565b612715610b1733610846565b612722816121203361085f565b61272e610b173361082d565b6020612741612144610bcd601354610661565b03925af1918215610cb057612184926127bb575b50612764610bcd601454610661565b8061276f5750614109565b61277890610661565b60206040518092630cac519960e41b8252815f8161279a8833600484016142b2565b03925af11561217e576121eb9060203d602011610cdb57610ccd81836104cc565b6127d39060203d60201161132f5761132081836104cc565b612755565b3461065d5760c036600319011261065d576004356001600160401b03811161065d57612808903690600401610e44565b6024356001600160401b03811161065d57612827903690600401610e44565b6044356001600160401b03811161065d57612846903690600401610e44565b9161284f611ba8565b60843592906001600160401b03841161065d5761065994612877611c94953690600401610e44565b9260a435946142d4565b3461065d575f36600319011261065d576020600154604051908152f35b3461065d57608036600319011261065d576004356024356001600160401b03811161065d576128d1903690600401610e44565b906044356001600160401b03811161065d576128f1903690600401610e44565b60643591906001600160401b03831161065d576106599361291961291f943690600401610e44565b9261440d565b60405160ff90911681529081906020820190565b3461065d575f36600319011261065d576018546040516001600160a01b039091168152602090f35b3461065d57604036600319011261065d576004356129788161080f565b6129df6024359160018060a01b0360155416331480156129e2575b61299c90614525565b6001600160a01b0381166129b1811515613791565b5f5260086020526129cf6129ca60405f2060ff90541690565b6137cc565b6129da831515614567565b610878565b55005b505f546001600160a01b03163314612993565b3461065d57610659612a206020612a0b36610e5f565b612a1361411f565b5060405192838092611876565b600c815203019020612415612a33610de3565b9180548352612a44600182016104ef565b6020840152612b17612b0d6006600284015493612a7e612a75612a6687610661565b9661235c60408b019889613809565b606089016141c8565b612ade612ad46003830154612a9e612a9582610661565b60808c01613809565b612ab360a082901c60ff1660ff1660a08c0152565b60ff60a882901c1660c08b01526123c460b082901c60ff1660e08c016141d4565b1515610100890152565b6004810154610120880152600581015461014088015201546124066001600160401b0382166101608801613818565b6101808501613818565b516001600160a01b0390612b2a90610661565b161515614190565b3461065d575f36600319011261065d57612b4a614709565b60046020612b5c610bcd601354610661565b604051631f209df760e11b815292839182905afa908115610cb0575f91612c50575b506040516370a0823160e01b8152906001600160a01b031660208280612ba73060048301610cff565b0381845afa918215610cb0575f92612c2f575b5081612bc257005b602082612bd392610c085f54610661565b03925af18015610cb057612bee915f91612c10575b506145ac565b5f516020614c2c5f395f51905f52610c7c60018060a01b03610c6a5f54610661565b612c29915060203d602011610ca957610c9b81836104cc565b5f612be8565b612c4991925060203d60201161132f5761132081836104cc565b905f612bba565b612c69915060203d602011610cdb57610ccd81836104cc565b5f612b7e565b3461065d57608036600319011261065d576106596114e75f80602435600435612c9782611b90565b604435612d1260643593612caa85612569565b612cb2614762565b6018546001600160a01b0316946114b590612cce871515613992565b6040516306ec548560e31b60208201908152336024830152604482019790975260ff9093166064840152608483019490945292151560a482015291829060c4820190565b51915af46114d8612d216139ce565b9161426c565b3461065d575f36600319011261065d576020604051670de0b6b3a76400008152f35b3461065d575f80612d5936610932565b612d67949294939193614762565b6015546001600160a01b031633148015612e94575b612d8590614525565b848252600d602052612da660018060a01b0360016124cd8760408720610891565b6018546001600160a01b031690612dbe821515613992565b60405163769531ff60e01b60208201908152602482018890526001600160a01b03871660448301526064820192909252612dfb81608481016114b5565b51915af4612e076139ce565b5015612e52576040519133916001600160a01b0316907fe9b4262dc1d8fa975798a8a038a6e52fbe12d1158063abe262d097cf688755b55f80a4612e4961479a565b60018152602090f35b60405162461bcd60e51b815260206004820152601a602482015279131bd9da58ce881c995b5bdd99541b185e595c8819985a5b195960321b6044820152606490fd5b5081546001600160a01b03163314612d7c565b3461065d5760e036600319011261065d576004356001600160401b03811161065d57612ed7903690600401610e44565b6024356001600160401b03811161065d57612ef6903690600401610e44565b906044356001600160401b03811161065d57612f16903690600401610e44565b90612f1f611ba8565b92608435926001600160401b03841161065d5761065994612f47611c94953690600401610e44565b9160a4359360c435956145ea565b3461065d57602036600319011261065d57600435612f728161080f565b60018060a01b03165f52600960205261065961091e60405f206104ef565b3461065d57606036600319011261065d57600435612fad8161080f565b6024356001600160401b03811161065d57612fcd5f913690600401610e44565b6044359260018060a01b036015541633148015613216575b612fee90614525565b612ff782614944565b6130106001600160a01b036120556002610fb086611888565b61302261206e610b02610afb84610846565b6001600160a01b03811693613038851515613791565b613043811515614567565b61304c82610878565b556130636130598261082d565b805460ff19169055565b613071612081600154613deb565b6130e860015461307f610dd3565b9081528360208201526130958360408301613809565b6130ab426001600160401b031660608301613818565b8460808201528460a08201528460c08201528460e08201528461010082015284610120820152846101408201528461016082015261210284611888565b6130f4610b1782610846565b613101826121208361085f565b602061313a613114610bcd601354610661565b671bc16d674ec80000604051968780948193634a080b1760e01b83528860048401613738565b03925af1928315610cb05761316c936131f9575b5061315d610bcd601454610661565b828161319f575b505050614109565b90604051917f251cd9512dbdae9b01851e77df26e46f2de2cd9f9c5520374254ad3c243b399f5f80a36001548152602090f35b6131cc926131ae602093610661565b905f604051809681958294630cac519960e41b8452600484016142b2565b03925af16131dc575b8082613164565b6131f49060203d602011610cdb57610ccd81836104cc565b6131d5565b6132119060203d60201161132f5761132081836104cc565b61314e565b5082546001600160a01b03163314612fe5565b3461065d57604036600319011261065d57602060243560043561324b82611b90565b5f526006825261327060018060a01b039160405f209060ff165f5260205260405f2090565b5416604051908152f35b3461065d5760e036600319011261065d57613293610820565b6024356001600160401b03811161065d576132b2903690600401610e44565b90604435906064356084356001600160401b03811161065d576132d9903690600401610e44565b60a4356001600160401b03811161065d576132f8903690600401610e44565b60c435949092906001600160401b03861161065d576106599661332261291f973690600401610e44565b9561463a565b3461065d57602036600319011261065d576004356133458161080f565b61334d614709565b6001600160a01b038116156133655761098d9061472f565b631e4fbdf760e01b5f525f60045260245ffd5b3461065d5761338b602061192936610e5f565b600c8152030190208054906106596133a5600183016104ef565b926002830154906003840154936133c08560ff9060a01c1690565b60a886901c60ff1660b087901c60ff1660b888901c60ff169160048501549360066005870154960154966134026133fc8960018060401b031690565b9861066d565b6040519c8d9c919a6001600160a01b039283169360a082901c60ff169390911691908e6106bc565b3461065d5761012036600319011261065d57613444610820565b6024356001600160401b03811161065d57613463903690600401610e44565b604435916064356001600160401b03811161065d57613486903690600401610e44565b916084356001600160401b03811161065d576134a6903690600401610e44565b60a4356001600160401b03811161065d576134c5903690600401610e44565b6134cd611b9b565b60e435959092906001600160401b03871161065d57610659976134f7611c94983690600401610e44565b95610104359761468f565b1561350957565b60405162461bcd60e51b815260206004820152600b60248201526a4e6f7420696e2067616d6560a81b6044820152606490fd5b90815f52600d60205261355e60018060a01b0360016124cd8460405f20610891565b815f5260106020526135738160405f20610891565b548311156135dc576135d781846135bc7fdbe966f1cf42463fa535f7458d5b21f2f04c48c4af056e6d4b0d070a046dd5e7946135b7875f52601060205260405f2090565b610891565b556040519485526001600160a01b0316939081906020820190565b0390a3565b60405162461bcd60e51b815260206004820152601160248201527043616e206f6e6c7920696e63726561736560781b6044820152606490fd5b1561361c57565b60405162461bcd60e51b8152602060048201526011602482015270496e76616c6964207369676e617475726560781b6044820152606490fd5b1561365c57565b60405162461bcd60e51b815260206004820152601060248201526f105b1c9958591e481d995c9a599a595960821b6044820152606490fd5b1561369b57565b60405162461bcd60e51b815260206004820152601a602482015279496e73756666696369656e7420686f7573652062616c616e636560301b6044820152606490fd5b634e487b7160e01b5f52601160045260245ffd5b919082039182116136fe57565b6136dd565b9081602091031261065d57516105f38161080f565b6040513d5f823e3d90fd5b9081602091031261065d57516105f381612569565b6001600160a01b039091168152602081019190915260400190565b1561375a57565b60405162461bcd60e51b815260206004820152600f60248201526e15da5d1a191c985dc819985a5b1959608a1b6044820152606490fd5b1561379857565b60405162461bcd60e51b815260206004820152600c60248201526b5a65726f206164647265737360a01b6044820152606490fd5b156137d357565b60405162461bcd60e51b815260206004820152600e60248201526d139bdd081c9959da5cdd195c995960921b6044820152606490fd5b6001600160a01b039091169052565b6001600160401b039091169052565b90600a613832610dd3565b9280548452613843600182016104ef565b6020850152613880613877600283015461386861385f82610661565b60408901613809565b60a01c6001600160401b031690565b60608601613818565b60038101546080850152600481015460a0850152600581015460c0850152600681015460e08501526007810154610100850152600881015461012085015260098101546101408501520154610160830152565b906001600160a01b0382161561395d576001600160a01b03168015613920576138fe6105279261472f565b601380546001600160a01b0319166001600160a01b0392909216919091179055565b60405162461bcd60e51b8152602060048201526015602482015274496e76616c6964207265776172642073797374656d60581b6044820152606490fd5b60405162461bcd60e51b815260206004820152600d60248201526c24b73b30b634b21037bbb732b960991b6044820152606490fd5b1561399957565b60405162461bcd60e51b815260206004820152600d60248201526c131bd9da58c81b9bdd081cd95d609a1b6044820152606490fd5b3d156139f8573d906139df82610df3565b916139ed60405193846104cc565b82523d5f602084013e565b606090565b15613a0457565b60405162461bcd60e51b815260206004820152601e60248201527f4c6f6769633a206c6561766550656e64696e6747616d65206661696c656400006044820152606490fd5b60405190613a56826104b1565b606060c0835f81525f60208201525f60408201525f838201525f60808201525f60a08201520152565b600882101561069d5752565b15613a9257565b60405162461bcd60e51b8152602060048201526016602482015275131bd9da58ce88195e1a5d11d85b594819985a5b195960521b6044820152606490fd5b15613ad757565b60405162461bcd60e51b815260206004820152600e60248201526d11d85b59481b9bdd08199bdd5b9960921b6044820152606490fd5b6001600160401b0381116104ac5760051b60200190565b90613b2e82613b0d565b613b3b60405191826104cc565b8281528092613b4c601f1991613b0d565b0190602036910137565b60ff1660ff81146136fe5760010190565b60ff5f199116019060ff82116136fe57565b8051821015613b8d5760209160051b010190565b634e487b7160e01b5f52603260045260245ffd5b985f988998613c0095949798613bca613bc36114b596613c249f61146b614762565b998a6148a3565b6018546001600160a01b031699613be28b1515613992565b604051988997602089019b6327d1328160e21b8d5260248a01613c38565b51915af4613c15613c0f6139ce565b91613caa565b60208082518301019101613cf1565b9060015f516020614c8c5f395f51905f5255565b9492613ca094613c7e613c8c92613c7060e09a9660ff969e9d9c9e60018060a01b03168b5261010060208c01526101008b019061058f565b9089820360408b015261058f565b90878203606089015261058f565b9216608085015283820360a085015261058f565b9460c08201520152565b15613cb157565b60405162461bcd60e51b8152602060048201526018602482015277131bd9da58ce8818dc99585d1951d85b594819985a5b195960421b6044820152606490fd5b9081602091031261065d575190565b6020908260405193849283378101600781520301902090565b15613d2057565b60405162461bcd60e51b815260206004820152601560248201527414d95b1b195c881b9bdd081c9959da5cdd195c9959605a1b6044820152606490fd5b15613d6457565b60405162461bcd60e51b8152602060048201526014602482015273109d5e595c881b9bdd081c9959da5cdd195c995960621b6044820152606490fd5b15613da757565b60405162461bcd60e51b815260206004820152601c60248201527b29b2b63632b91030b73210313abcb2b91036bab9ba103234b33332b960211b6044820152606490fd5b5f1981146136fe5760010190565b600993600a926020613e3f93613e18613e13368584610e0e565b614944565b613e26613e1336868a610e0e565b8260405193849283378101600781520301902093613d00565b91613e8660018060a01b03613e576002840154610661565b16613e63811515613d19565b613e73610bcd6002870154610661565b90613e7f821515613d5d565b1415613da0565b01613e918154613deb565b905501613e9e8154613deb565b9055565b15613ea957565b60405162461bcd60e51b815260206004820152600e60248201526d2ab9b2b93730b6b2903a30b5b2b760911b6044820152606490fd5b15613ee657565b60405162461bcd60e51b8152602060048201526012602482015271105b1c9958591e481c9959da5cdd195c995960721b6044820152606490fd5b601f8211613f2d57505050565b5f5260205f20906020601f840160051c83019310613f65575b601f0160051c01905b818110613f5a575050565b5f8155600101613f4f565b9091508190613f46565b81519192916001600160401b0381116104ac57613f9681613f908454610444565b84613f20565b6020601f8211600114613fd1578190613e9e9394955f92613fc6575b50508160011b915f199060031b1c19161790565b015190505f80613fb2565b601f19821690613fe4845f5260205f2090565b915f5b81811061401e57509583600195969710614006575b505050811b019055565b01515f1960f88460031b161c191690555f8080613ffc565b9192602060018192868b015181550194019201613fe7565b90610160600a9180518455614052602082015160018601613f6f565b6140b9600285016140856140696040850151610661565b82546001600160a01b0319166001600160a01b03909116178255565b60608301516001600160401b03168154600160a01b600160e01b03191660a09190911b600160a01b600160e01b0316179055565b6080810151600385015560a0810151600485015560c0810151600585015560e081015160068501556101008101516007850155610120810151600885015561014081015160098501550151910155565b6141199060405191828092611876565b03902090565b604051906101a082016001600160401b038111838210176104ac576040525f61018083828152606060208201528260408201528260608201528260808201528260a08201528260c08201528260e0820152826101008201528261012082015282610140820152826101608201520152565b1561419757565b60405162461bcd60e51b8152602060048201526009602482015268139bdd08199bdd5b9960ba1b6044820152606490fd5b600382101561069d5752565b600282101561069d5752565b5f95936114b5613c24986142066141ff8a9996612d129661146b614762565b96876148a3565b6018546001600160a01b03169661421e881515613992565b6040516306ec548560e31b602082019081526001600160a01b039098166024820152604481019490945260ff9095166064840152608483019490945292151560a482015291829060c4820190565b1561427357565b60405162461bcd60e51b8152602060048201526017602482015276131bd9da58ce88195b99105251d85b594819985a5b1959604a1b6044820152606490fd5b6001600160a01b0390911681526040602082018190526105f39291019061058f565b9190614328906114b55f9788976142e9614762565b6142f4601854610661565b976143096001600160a01b038a161515613992565b6040519687956020870199630fd3bb6560e31b8b5233602489016143a5565b51915af46143346139ce565b9015614356578060208061434d93518301019101613cf1565b9061052761479a565b805190816143a05760405162461bcd60e51b815260206004820152601a602482015279131bd9da58ce8818dc99585d19505251d85b594819985a5b195960321b6044820152606490fd5b602001fd5b97969591614408946143e660c097956143d86143f49460e08e60ff9860018060a01b03168152816020820152019061058f565b8c810360408e01529061058f565b908a820360608c015261058f565b9216608088015286820360a088015261058f565b930152565b92613c24935f9361445c8594614421614762565b6018546001600160a01b0316946114b59061443d871515613992565b6040519485936020850197633493b7af60e11b89523360248701614480565b51915af461447161446b6139ce565b916144cb565b60208082518301019101614510565b93906105f395936144bd936144af9260018060a01b03168752602087015260a0604087015260a086019061058f565b90848203606086015261058f565b91608081840391015261058f565b156144d257565b60405162461bcd60e51b8152602060048201526016602482015275131bd9da58ce881a9bda5b91d85b594819985a5b195960521b6044820152606490fd5b9081602091031261065d57516105f381611b90565b1561452c57565b60405162461bcd60e51b81526020600482015260136024820152722737ba1033b0b6b29031b7b73a3937b63632b960691b6044820152606490fd5b1561456e57565b60405162461bcd60e51b815260206004820152601660248201527514185cdcdddbdc99081a185cda081c995c5d5a5c995960521b6044820152606490fd5b156145b357565b60405162461bcd60e51b815260206004820152600f60248201526e151c985b9cd9995c8819985a5b1959608a1b6044820152606490fd5b9190613c00906114b5613c24985f988998614603614762565b6018546001600160a01b03169861461b8a1515613992565b604051978896602088019a6327d1328160e21b8c523360248a01613c38565b5f95936114b5613c24986146596141ff8a999661445c9661146b614762565b6018546001600160a01b031696614671881515613992565b6040519586946020860198633493b7af60e11b8a5260248701614480565b975f9897614328949396976146b56146ae6114b5958d9c61146b614762565b98896148a3565b6146c0601854610661565b986146d56001600160a01b038b161515613992565b604051978896602088019a630fd3bb6560e31b8c52602489016143a5565b6105f391614700916149c5565b90929192614a09565b5f546001600160a01b0316330361471c57565b63118cdaa760e01b5f523360045260245ffd5b5f80546001600160a01b039283166001600160a01b03198216811783559216905f516020614c6c5f395f51905f529080a3565b60025f516020614c8c5f395f51905f52541461478b5760025f516020614c8c5f395f51905f5255565b633ee5aeb560e01b5f5260045ffd5b60015f516020614c8c5f395f51905f5255565b6001600160a01b0381166148615750805115614821576147ce600291611888565b01546001600160a01b031680156147e25790565b60405162461bcd60e51b8152602060048201526017602482015276155cd95c9b985b59481b9bdd081c9959da5cdd195c9959604a1b6044820152606490fd5b60405162461bcd60e51b81526020600482015260186024820152774e6565642061646472657373206f7220757365726e616d6560401b6044820152606490fd5b905090565b1561486d57565b60405162461bcd60e51b815260206004820152600e60248201526d15dc9bdb99c81c185cdcdddbdc9960921b6044820152606490fd5b9060018060a01b036015541633148015614931575b6148c190614525565b6001600160a01b0382166148d6811515613791565b5f52601160205260405f2054156148fa576148f361052792610878565b5414614866565b60405162461bcd60e51b815260206004820152600f60248201526e139bc81c185cdcdddbdc99081cd95d608a1b6044820152606490fd5b505f546001600160a01b031633146148b8565b80511561498f57602090511161495657565b60405162461bcd60e51b8152602060048201526011602482015270557365726e616d6520746f6f206c6f6e6760781b6044820152606490fd5b60405162461bcd60e51b815260206004820152600e60248201526d557365726e616d6520656d70747960901b6044820152606490fd5b81519190604183036149f5576149ee9250602082015190606060408401519301515f1a90614b27565b9192909190565b50505f9160029190565b6004111561069d57565b614a12816149ff565b80614a1b575050565b614a24816149ff565b60018103614a3b5763f645eedf60e01b5f5260045ffd5b614a44816149ff565b60028103614a5f575063fce698f760e01b5f5260045260245ffd5b80614a6b6003926149ff565b14614a735750565b6335e2f38360e21b5f5260045260245ffd5b90813b15614b06575f516020614c4c5f395f51905f5280546001600160a01b0319166001600160a01b0384169081179091557fbc7cd75a20ee27fd9adebab32041f755214dbc6bffa90cc0225b39da2e5c2d3b5f80a2805115614aee57614aeb91614b9f565b50565b505034614af757565b63b398979f60e01b5f5260045ffd5b50634c9c8ce360e01b5f9081526001600160a01b0391909116600452602490fd5b91906fa2a8918ca85bafe22016d0b997e4df60600160ff1b038411614b94579160209360809260ff5f9560405194855216868401526040830152606082015282805260015afa15610cb0575f516001600160a01b03811615614b8a57905f905f90565b505f906001905f90565b5050505f9160039190565b905f8091602081519101845af48080614bff575b15614bc25750506105f3614c12565b15614be757639996b31560e01b5f9081526001600160a01b0391909116600452602490fd5b3d15155f036137185763d6bda27560e01b5f5260045ffd5b503d151580614bb35750813b1515614bb3565b604051903d82523d5f602084013e60203d83010160405256fe6ab20e9e4ce4c46404e29ba5769f6a3736b77c3567d581782463132dcb757950360894a13ba1a3210667c828492db98dca3e2076cc3735a920a3ca505d382bbc8be0079c531659141344cd1fd0a4f28419497f9722a3daafe3b4186f6b6457e09b779b17422d0df92223018b32b4d1fa46e071723d6817e2486d003becc55f00f0c57e16840df040f15088dc2f81fe391c3923bec73e23a9662efc9c229c6a00a2646970667358221220c5a3bc1178b69cc968591314327e23a8048a52895738dfa3f4b214b09311fb3a64736f6c634300081e0033f0c57e16840df040f15088dc2f81fe391c3923bec73e23a9662efc9c229c6a00","linkReferences":{}},"methodIdentifiers":{"TOKEN_REWARD()":"d4ba8902","UPGRADE_INTERFACE_VERSION()":"ad3cb1cc","addressToUsername(address)":"e07a0baa","addressVerified(address)":"55462c4e","backendGameController()":"654e4a00","claims(uint256,address)":"1da4c66b","codeToGame(string)":"f3ffe195","createAIGame(string,string,string,uint8,string,uint256)":"b37d27bf","createAIGameByBackend(address,string,bytes32,string,string,string,uint8,string,uint256)":"f6e2560a","createGame(string,string,string,uint8,string,uint256,uint256)":"e001764a","createGameByBackend(address,string,bytes32,string,string,string,uint8,string,uint256,uint256)":"7716393c","createWalletForExistingUser(address)":"7f5124dd","drainContract()":"d0360e59","endAIGame(uint256,uint8,uint256,bool)":"d37fa66c","endAIGameByBackend(address,string,bytes32,uint256,uint8,uint256,bool)":"aec6fb69","exitGame(uint256)":"ad38ed4b","exitGameByBackend(address,string,bytes32,uint256)":"643036dd","gameFaucet()":"29dcf997","gameOrderToPlayer(uint256,uint8)":"eda71e71","gamePlayers(uint256,address)":"62e2961b","gameSettings(uint256)":"05931a3c","games(uint256)":"117a5b90","getGame(uint256)":"a2f77bcc","getGameByCode(string)":"ced91a72","getGamePlayer(uint256,address)":"6021b139","getGameSettings(uint256)":"7cea0c75","getLastGameCode(address)":"13f2ae18","getPlayersInGame(uint256)":"74796cc2","getUser(string)":"31feb671","houseUSDC()":"24bf7eec","initialize(address,address)":"485cc955","joinGame(uint256,string,string,string)":"cb2a2c3b","joinGameByBackend(address,string,bytes32,uint256,string,string,string)":"eff98afb","leavePendingGame(uint256)":"7328a153","leavePendingGameByBackend(address,string,bytes32,uint256)":"55e0ef31","logicContract()":"cc0e97c9","minStake()":"375b3c0a","minTurnsForPerks()":"8f269ae4","owner()":"8da5cb5b","previousGameCode(address)":"931eceb6","proxiableUUID()":"52d1902d","registerPlayer(string)":"b3446f85","registerPlayerFor(address,string,bytes32)":"ed18b3b2","registerPlayerWithoutWallet(string)":"9ea5d161","registered(address)":"b2dd5c07","removePlayerFromGame(uint256,address,uint256)":"da5e0f8d","renounceOwnership()":"715018a6","rewardSystem()":"73d38793","setBackendGameController(address)":"a937f9b4","setBackendPasswordFor(address,bytes32)":"cd44c40e","setGameFaucet(address)":"448d7252","setLogicContract(address)":"5aa4470f","setMinStake(uint256)":"8c80fd90","setMinTurnsForPerks(uint256)":"355f01bd","setPropertyStats(string,string)":"91678e28","setRewardSystem(address)":"2b3ea9e1","setTurnCount(uint256,address,uint256)":"17c31910","setUserRegistry(address)":"b0d5451b","totalGames()":"2c4e591b","totalUsers()":"bff1f9e1","transferOwnership(address)":"f2fde38b","turnsPlayed(uint256,address)":"126f68b1","upgradeToAndCall(address,bytes)":"4f1ef286","userRegistry()":"5c7460d6","users(string)":"689e1c03","verifyAddress(bytes)":"1b5569d4","withdrawHouse(uint256)":"23218411"},"id":98}